:100000002BC044C043C042C041C040C03FC03EC0FE
:100010003DC03CC03BC0A7C039C038C037C036C0A7
:1000200035C000003900360000003A0037000000FB
:100030003B0038000101010101010101020202013E
:1000400002040810204080040201000000000004A7
:10005000030201000000880211241FBECFE5D1E099
:10006000DEBFCDBF20E0A0E6B0E001C01D92A93701
:10007000B207E1F710E0CCE2D0E003C02197FE0127
:100080005ED2CB32D107D1F7E9D05FC2B9CF82308F
:10009000A1F018F4813069F00895833019F08430AC
:1000A00029F008958FB58F778FBD08958FB58F7D17
:1000B000FBCF80B78F7780BF089580B78F7DFBCF50
:1000C0001F93CF93DF93282F30E0F901E65BFF4FBA
:1000D0008491F901E15CFF4FD491F901EC5CFF4F91
:1000E000C491CC23A1F0162F8111D1DFEC2FF0E0C9
:1000F000EE0FFF1FE25DFF4FA591B4918FB7F8940B
:10010000EC91111108C0D095DE23DC938FBFDF91F5
:10011000CF911F910895DE2BF8CF3FB7F8948091CF
:10012000750090917600A0917700B091780022B789
:1001300008B600FE05C02F3F19F00196A11DB11DA4
:100140003FBFBA2FA92F982F8827BC01CD01620F7E
:10015000711D811D911D43E0660F771F881F991F38
:100160004A95D1F708951F920F920FB60F9211245E
:100170002F933F938F939F93AF93BF938091710081
:1001800090917200A0917300B09174003091700052
:1001900026E0230F2D3758F50296A11DB11D20939F
:1001A00070008093710090937200A0937300B093DD
:1001B00074008091750090917600A0917700B091C5
:1001C00078000196A11DB11D809375009093760073
:1001D000A0937700B0937800BF91AF919F918F91DA
:1001E0003F912F910F900FBE0F901F90189529E807
:1001F000230F0396A11DB11DD2CFCF93DF9390E0C3
:10020000FC01E15CFF4F24918C5C9F4FFC018491C9
:100210008823D1F090E0880F991FFC01E85DFF4F23
:10022000A591B491FC01E25DFF4FC591D49162307C
:1002300071F49FB7F8943C91822F809583238C931F
:10024000E8812E2B28839FBFDF91CF9108958FB730
:10025000F894EC912E2B2C938FBFF6CF789480B727
:10026000826080BF80B7816080BF83B7826083BFB8
:1002700083B7816083BF89B7816089BF1EBC8EB59B
:1002800082608EBD8EB581608EBD8FB581608FBD61
:10029000329A319A3098379A8FEF8ABB8BBB109283
:1002A0006500109266001092670010926200109232
:1002B00063001092640004E110E0B0E0EB2EB0E0C7
:1002C000FB2EC4E13C2E61E080916A00F9DEC8019A
:1002D0000197F1F760E080916A00F2DED0E0C0E0C3
:1002E000D12C20916E0030916F003327F901E65B2D
:1002F000FF4F8491F901E15CFF4FC490F901EC5C80
:10030000FF4FA490812CAA2081F08111C0DEEA2D3C
:10031000F0E0EE0FFF1FEE5DFF4FA591B491EC9161
:10032000CE2291E009F490E0892EC8010197F1F7FF
:1003300061E080916C00C4DEC8010197F1F760E0D4
:1003400080916C00BDDE0C2E01C0880C0A94EAF787
:10035000D8282196C830D10509F0C3CFD094D092C7
:1003600069002D2D30E0A90164E0559547956A9507
:10037000E1F7C90175E0880F991F7A95E1F780725E
:10038000E3E0220F331FEA95E1F72071822B942FCF
:100390009870892B942F9470892B942F9270892BAD
:1003A0004170842B80936800D2FE78C081E08093F6
:1003B000670080916600813079F48091650090E05B
:1003C00033E0959587953A95E1F7892B29F480914B
:1003D00068008F7E809368008091690083FF7BC0F6
:1003E00081E08093640080916300813079F4809192
:1003F000620090E023E0959587952A95E1F7892B97
:1004000029F4809168008F7D809368008091680056
:100410008F7380958BBB809165008F5F80936500A3
:1004200090916100981710F410926500809162001D
:100430008F5F8093620020916000022E000C330BCE
:100440008217130619F014F01092620066DE4B0159
:100450005C0185E0482E512C612C712C5EDE681900
:1004600079098A099B09683E734081059105B0F3BB
:1004700081E0481A51086108710828EE820E23E0D5
:10048000921EA11CB11C411451046104710431F786
:10049000E114F10409F417CFB3DD15CF80916700A3
:1004A000813009F086CF90916600911107C080934A
:1004B000660030926100109267007BCF80916100EE
:1004C000843120F4865F80936100F5CF109266003E
:1004D00010926100F0CF80916400813009F083CFE9
:1004E00090916300911107C0809363003092600087
:1004F0001092640078CF80916000843124F4865F8C
:1005000080936000F5CF1092630010926000F0CFEE
:10051000EAE6F0E08AE090E09183808389E090E071
:100520009383828388E090E09583848361E08AE00E
:1005300064DE61E089E061DE62E088E05ECEEE0FBD
:0E054000FF1F0590F491E02D0994F894FFCF71
:00000001FF
